:020000040000FA
:1000000000901027109170001092204ED093800025
:10001000011C230CCC964520F57AE595D894E6F999
:100020001AF417F008F400F09895F1F3ECF7E5F7FF
:10003000DDF3D7F7CFF3C0F3BCF3B2F3A9F7A2F720
:1000400098F796F78EF383F77BF34894D7FB0E94DB
:100050001400A798CB7F8894D894F894A894442748
:10006000C894E894B8949894909567148904E83CEF
:10007000AB106A95CB9419951994D8953691179130
:10008000CD246F03C50389030995099429B5039508
:100090000C9464005693659377930C911D912E9167
:1000A000388149915A916DA9708181919291A3A54E
:1000B0008DE9C895D491C591110F2695EF2C8A0131
:1000C000109F9A02670331950000322BB46C11BD6A
:1000D0005F906F92A9DF08951895A6CF771FE795D7
:1000E000450B914E9D9AA699AF99F3971D6CD4FD3F
:1000F000D5FF08945894789428944FEF48946894C6
:10010000389418948895E895F8950C921D922E9243
:10011000388249925A9268A6708281929292A3AADA
:0C012000671B415872948820A895B49287
:00000001FF
